{
  "_format": "hh-sol-artifact-1",
  "contractName": "Voting",
  "sourceName": "contracts/Voting.sol",
  "abi": [
    {
      "inputs": [],
      "stateMutability": "nonpayable",
      "type": "constructor"
    },
    {
      "anonymous": false,
      "inputs": [
        {
          "indexed": true,
          "internalType": "address",
          "name": "newAdmin",
          "type": "address"
        }
      ],
      "name": "AdminAdded",
      "type": "event"
    },
    {
      "anonymous": false,
      "inputs": [
        {
          "indexed": true,
          "internalType": "uint256",
          "name": "candidateId",
          "type": "uint256"
        },
        {
          "indexed": false,
          "internalType": "string",
          "name": "name",
          "type": "string"
        }
      ],
      "name": "CandidateAdded",
      "type": "event"
    },
    {
      "anonymous": false,
      "inputs": [
        {
          "indexed": true,
          "internalType": "uint256",
          "name": "candidateId",
          "type": "uint256"
        }
      ],
      "name": "CandidateDeactivated",
      "type": "event"
    },
    {
      "anonymous": false,
      "inputs": [
        {
          "indexed": false,
          "internalType": "uint256",
          "name": "endTime",
          "type": "uint256"
        }
      ],
      "name": "ElectionEnded",
      "type": "event"
    },
    {
      "anonymous": false,
      "inputs": [
        {
          "indexed": false,
          "internalType": "uint256",
          "name": "startTime",
          "type": "uint256"
        },
        {
          "indexed": false,
          "internalType": "uint256",
          "name": "duration",
          "type": "uint256"
        }
      ],
      "name": "ElectionStarted",
      "type": "event"
    },
    {
      "anonymous": false,
      "inputs": [
        {
          "indexed": true,
          "internalType": "address",
          "name": "voter",
          "type": "address"
        },
        {
          "indexed": true,
          "internalType": "uint256",
          "name": "candidateId",
          "type": "uint256"
        }
      ],
      "name": "Voted",
      "type": "event"
    },
    {
      "inputs": [
        {
          "internalType": "address",
          "name": "_newAdmin",
          "type": "address"
        }
      ],
      "name": "addAdmin",
      "outputs": [],
      "stateMutability": "nonpayable",
      "type": "function"
    },
    {
      "inputs": [
        {
          "internalType": "string",
          "name": "_name",
          "type": "string"
        },
        {
          "internalType": "uint256",
          "name": "_age",
          "type": "uint256"
        },
        {
          "internalType": "string",
          "name": "_party",
          "type": "string"
        },
        {
          "internalType": "string",
          "name": "_imageUrl",
          "type": "string"
        }
      ],
      "name": "addCandidate",
      "outputs": [],
      "stateMutability": "nonpayable",
      "type": "function"
    },
    {
      "inputs": [
        {
          "internalType": "uint256",
          "name": "",
          "type": "uint256"
        }
      ],
      "name": "candidates",
      "outputs": [
        {
          "internalType": "uint256",
          "name": "id",
          "type": "uint256"
        },
        {
          "internalType": "string",
          "name": "name",
          "type": "string"
        },
        {
          "internalType": "uint256",
          "name": "age",
          "type": "uint256"
        },
        {
          "internalType": "string",
          "name": "party",
          "type": "string"
        },
        {
          "internalType": "string",
          "name": "imageUrl",
          "type": "string"
        },
        {
          "internalType": "uint256",
          "name": "voteCount",
          "type": "uint256"
        },
        {
          "internalType": "bool",
          "name": "isActive",
          "type": "bool"
        }
      ],
      "stateMutability": "view",
      "type": "function"
    },
    {
      "inputs": [],
      "name": "candidatesCount",
      "outputs": [
        {
          "internalType": "uint256",
          "name": "",
          "type": "uint256"
        }
      ],
      "stateMutability": "view",
      "type": "function"
    },
    {
      "inputs": [
        {
          "internalType": "uint256",
          "name": "_candidateId",
          "type": "uint256"
        }
      ],
      "name": "deactivateCandidate",
      "outputs": [],
      "stateMutability": "nonpayable",
      "type": "function"
    },
    {
      "inputs": [],
      "name": "electionDuration",
      "outputs": [
        {
          "internalType": "uint256",
          "name": "",
          "type": "uint256"
        }
      ],
      "stateMutability": "view",
      "type": "function"
    },
    {
      "inputs": [],
      "name": "electionStartTime",
      "outputs": [
        {
          "internalType": "uint256",
          "name": "",
          "type": "uint256"
        }
      ],
      "stateMutability": "view",
      "type": "function"
    },
    {
      "inputs": [],
      "name": "endElection",
      "outputs": [],
      "stateMutability": "nonpayable",
      "type": "function"
    },
    {
      "inputs": [
        {
          "internalType": "uint256",
          "name": "_candidateId",
          "type": "uint256"
        }
      ],
      "name": "getCandidateVotes",
      "outputs": [
        {
          "internalType": "uint256",
          "name": "",
          "type": "uint256"
        }
      ],
      "stateMutability": "view",
      "type": "function"
    },
    {
      "inputs": [],
      "name": "getElectionStatus",
      "outputs": [
        {
          "internalType": "string",
          "name": "",
          "type": "string"
        }
      ],
      "stateMutability": "view",
      "type": "function"
    },
    {
      "inputs": [],
      "name": "getRemainingTime",
      "outputs": [
        {
          "internalType": "uint256",
          "name": "",
          "type": "uint256"
        }
      ],
      "stateMutability": "view",
      "type": "function"
    },
    {
      "inputs": [],
      "name": "hasElectionEnded",
      "outputs": [
        {
          "internalType": "bool",
          "name": "",
          "type": "bool"
        }
      ],
      "stateMutability": "view",
      "type": "function"
    },
    {
      "inputs": [
        {
          "internalType": "address",
          "name": "",
          "type": "address"
        }
      ],
      "name": "hasVoted",
      "outputs": [
        {
          "internalType": "bool",
          "name": "",
          "type": "bool"
        }
      ],
      "stateMutability": "view",
      "type": "function"
    },
    {
      "inputs": [
        {
          "internalType": "address",
          "name": "_address",
          "type": "address"
        }
      ],
      "name": "isAddressAdmin",
      "outputs": [
        {
          "internalType": "bool",
          "name": "",
          "type": "bool"
        }
      ],
      "stateMutability": "view",
      "type": "function"
    },
    {
      "inputs": [
        {
          "internalType": "address",
          "name": "",
          "type": "address"
        }
      ],
      "name": "isAdmin",
      "outputs": [
        {
          "internalType": "bool",
          "name": "",
          "type": "bool"
        }
      ],
      "stateMutability": "view",
      "type": "function"
    },
    {
      "inputs": [],
      "name": "isElectionActive",
      "outputs": [
        {
          "internalType": "bool",
          "name": "",
          "type": "bool"
        }
      ],
      "stateMutability": "view",
      "type": "function"
    },
    {
      "inputs": [],
      "name": "owner",
      "outputs": [
        {
          "internalType": "address",
          "name": "",
          "type": "address"
        }
      ],
      "stateMutability": "view",
      "type": "function"
    },
    {
      "inputs": [
        {
          "internalType": "uint256",
          "name": "_durationInMinutes",
          "type": "uint256"
        }
      ],
      "name": "startElection",
      "outputs": [],
      "stateMutability": "nonpayable",
      "type": "function"
    },
    {
      "inputs": [
        {
          "internalType": "uint256",
          "name": "_candidateId",
          "type": "uint256"
        }
      ],
      "name": "vote",
      "outputs": [],
      "stateMutability": "nonpayable",
      "type": "function"
    }
  ],
  "bytecode": "0x608060405234801561001057600080fd5b50336000806101000a81548173ffffffffffffffffffffffffffffffffffffffff021916908373ffffffffffffffffffffffffffffffffffffffff16021790555060018060003373ffffffffffffffffffffffffffffffffffffffff1673ffffffffffffffffffffffffffffffffffffffff16815260200190815260200160002060006101000a81548160ff021916908315150217905550600073f39fd6e51aad88f6f4ce6ab8827279cfffb92266905060018060008373ffffffffffffffffffffffffffffffffffffffff1673ffffffffffffffffffffffffffffffffffffffff16815260200190815260200160002060006101000a81548160ff0219169083151502179055508073ffffffffffffffffffffffffffffffffffffffff167f44d6d25963f097ad14f29f06854a01f575648a1ef82f30e562ccd3889717e33960405160405180910390a25061244a8061016b6000396000f3fe608060405234801561001057600080fd5b50600436106101215760003560e01c80636d32dc4b116100ad5780639d9a462c116100715780639d9a462c146102fa578063aa7f317714610318578063c5980c9414610348578063c844223914610366578063efb98bcf1461038457610121565b80636d32dc4b146102585780637048027514610274578063866163c0146102905780638da5cb5b146102c057806397341d59146102de57610121565b80631c1d3baf116100f45780631c1d3baf146101ae57806324d7806c146101ca5780632d35a8a2146101fa5780633477ee2e1461021857806359f784681461024e57610121565b80630121b93f1461012657806309eef43e14610142578063122902a6146101725780631bf806cb14610190575b600080fd5b610140600480360381019061013b919061146c565b6103a2565b005b61015c600480360381019061015791906114f7565b61064e565b604051610169919061153f565b60405180910390f35b61017a61066e565b60405161018791906115ea565b60405180910390f35b610198610784565b6040516101a5919061161b565b60405180910390f35b6101c860048036038101906101c3919061176b565b61078a565b005b6101e460048036038101906101df91906114f7565b610a30565b6040516101f1919061153f565b60405180910390f35b610202610a50565b60405161020f919061161b565b60405180910390f35b610232600480360381019061022d919061146c565b610a56565b6040516102459796959493929190611826565b60405180910390f35b610256610c3d565b005b610272600480360381019061026d919061146c565b610d4d565b005b61028e600480360381019061028991906114f7565b610efa565b005b6102aa60048036038101906102a5919061146c565b611094565b6040516102b7919061161b565b60405180910390f35b6102c8611104565b6040516102d591906118b9565b60405180910390f35b6102f860048036038101906102f3919061146c565b611128565b005b610302611330565b60405161030f919061153f565b60405180910390f35b610332600480360381019061032d91906114f7565b611343565b60405161033f919061153f565b60405180910390f35b610350611399565b60405161035d919061161b565b60405180910390f35b61036e61139f565b60405161037b919061153f565b60405180910390f35b61038c6113b2565b604051610399919061161b565b60405180910390f35b600560009054906101000a900460ff166103f1576040517f08c379a00000000000000000000000000000000000000000000000000000000081526004016103e890611920565b60405180910390fd5b600454600354610401919061196f565b4210610442576040517f08c379a0000000000000000000000000000000000000000000000000000000008152600401610439906119ef565b60405180910390fd5b600260003373ffffffffffffffffffffffffffffffffffffffff1673ffffffffffffffffffffffffffffffffffffffff16815260200190815260200160002060009054906101000a900460ff16156104cf576040517f08c379a00000000000000000000000000000000000000000000000000000000081526004016104c690611a5b565b60405180910390fd5b6000811180156104e157506007548111155b610520576040517f08c379a000000000000000000000000000000000000000000000000000000000815260040161051790611ac7565b60405180910390fd5b6006600082815260200190815260200160002060060160009054906101000a900460ff16610583576040517f08c379a000000000000000000000000000000000000000000000000000000000815260040161057a90611b33565b60405180910390fd5b6001600260003373ffffffffffffffffffffffffffffffffffffffff1673ffffffffffffffffffffffffffffffffffffffff16815260200190815260200160002060006101000a81548160ff02191690831515021790555060066000828152602001908152602001600020600501600081548092919061060290611b53565b9190505550803373ffffffffffffffffffffffffffffffffffffffff167f4d99b957a2bc29a30ebd96a7be8e68fe50a3c701db28a91436490b7d53870ca460405160405180910390a350565b60026020528060005260406000206000915054906101000a900460ff1681565b6060600560009054906101000a900460ff1615801561069a5750600560019054906101000a900460ff16155b156106dc576040518060400160405280600c81526020017f4e6f6e20696e697a6961746500000000000000000000000000000000000000008152509050610781565b600560009054906101000a900460ff1680156107065750600454600354610703919061196f565b42105b15610748576040518060400160405280600881526020017f496e20636f72736f0000000000000000000000000000000000000000000000008152509050610781565b6040518060400160405280600981526020017f5465726d696e617465000000000000000000000000000000000000000000000081525090505b90565b60045481565b600160003373ffffffffffffffffffffffffffffffffffffffff1673ffffffffffffffffffffffffffffffffffffffff16815260200190815260200160002060009054906101000a900460ff16610816576040517f08c379a000000000000000000000000000000000000000000000000000000000815260040161080d90611c0d565b60405180910390fd5b600560009054906101000a900460ff161580156108405750600560019054906101000a900460ff16155b61087f576040517f08c379a000000000000000000000000000000000000000000000000000000000815260040161087690611c9f565b60405180910390fd5b60008451116108c3576040517f08c379a00000000000000000000000000000000000000000000000000000000081526004016108ba90611d31565b60405180910390fd5b6012831015610907576040517f08c379a00000000000000000000000000000000000000000000000000000000081526004016108fe90611dc3565b60405180910390fd5b6007600081548092919061091a90611b53565b91905055506040518060e001604052806007548152602001858152602001848152602001838152602001828152602001600081526020016001151581525060066000600754815260200190815260200160002060008201518160000155602082015181600101908161098c9190611fef565b506040820151816002015560608201518160030190816109ac9190611fef565b5060808201518160040190816109c29190611fef565b5060a0820151816005015560c08201518160060160006101000a81548160ff0219169083151502179055509050506007547fe83b2a43e7e82d975c8a0a6d2f045153c869e111136a34d1889ab7b598e396a385604051610a2291906115ea565b60405180910390a250505050565b60016020528060005260406000206000915054906101000a900460ff1681565b60075481565b6006602052806000526040600020600091509050806000015490806001018054610a7f90611e12565b80601f0160208091040260200160405190810160405280929190818152602001828054610aab90611e12565b8015610af85780601f10610acd57610100808354040283529160200191610af8565b820191906000526020600020905b815481529060010190602001808311610adb57829003601f168201915b505050505090806002015490806003018054610b1390611e12565b80601f0160208091040260200160405190810160405280929190818152602001828054610b3f90611e12565b8015610b8c5780601f10610b6157610100808354040283529160200191610b8c565b820191906000526020600020905b815481529060010190602001808311610b6f57829003601f168201915b505050505090806004018054610ba190611e12565b80601f0160208091040260200160405190810160405280929190818152602001828054610bcd90611e12565b8015610c1a5780601f10610bef57610100808354040283529160200191610c1a565b820191906000526020600020905b815481529060010190602001808311610bfd57829003601f168201915b5050505050908060050154908060060160009054906101000a900460ff16905087565b600560009054906101000a900460ff16610c8c576040517f08c379a0000000000000000000000000000000000000000000000000000000008152600401610c8390611920565b60405180910390fd5b600454600354610c9c919061196f565b421015610cde576040517f08c379a0000000000000000000000000000000000000000000000000000000008152600401610cd590612133565b60405180910390fd5b6000600560006101000a81548160ff0219169083151502179055506001600560016101000a81548160ff0219169083151502179055507f562cd572b2ba3b666cd989fc4ca98419ec81e75f04528df9d9d76fdb7807ee7142604051610d43919061161b565b60405180910390a1565b600160003373ffffffffffffffffffffffffffffffffffffffff1673ffffffffffffffffffffffffffffffffffffffff16815260200190815260200160002060009054906101000a900460ff16610dd9576040517f08c379a0000000000000000000000000000000000000000000000000000000008152600401610dd090611c0d565b60405180910390fd5b600560009054906101000a900460ff16158015610e035750600560019054906101000a900460ff16155b610e42576040517f08c379a0000000000000000000000000000000000000000000000000000000008152600401610e3990611c9f565b60405180910390fd5b60008111610e85576040517f08c379a0000000000000000000000000000000000000000000000000000000008152600401610e7c906121c5565b60405180910390fd5b42600381905550603c81610e9991906121e5565b6004819055506001600560006101000a81548160ff0219169083151502179055507fff6a30dd22f5e8b783044c7d895a6e8592b55c56f139978d44dc39daf596731f600354600454604051610eef929190612227565b60405180910390a150565b60008054906101000a900473ffffffffffffffffffffffffffffffffffffffff1673ffffffffffffffffffffffffffffffffffffffff163373ffffffffffffffffffffffffffffffffffffffff1614610f88576040517f08c379a0000000000000000000000000000000000000000000000000000000008152600401610f7f906122c2565b60405180910390fd5b600073ffffffffffffffffffffffffffffffffffffffff168173ffffffffffffffffffffffffffffffffffffffff1603610ff7576040517f08c379a0000000000000000000000000000000000000000000000000000000008152600401610fee9061232e565b60405180910390fd5b60018060008373ffffffffffffffffffffffffffffffffffffffff1673ffffffffffffffffffffffffffffffffffffffff16815260200190815260200160002060006101000a81548160ff0219169083151502179055508073ffffffffffffffffffffffffffffffffffffffff167f44d6d25963f097ad14f29f06854a01f575648a1ef82f30e562ccd3889717e33960405160405180910390a250565b600080821180156110a757506007548211155b6110e6576040517f08c379a00000000000000000000000000000000000000000000000000000000081526004016110dd90611ac7565b60405180910390fd5b60066000838152602001908152602001600020600501549050919050565b60008054906101000a900473ffffffffffffffffffffffffffffffffffffffff1681565b600160003373ffffffffffffffffffffffffffffffffffffffff1673ffffffffffffffffffffffffffffffffffffffff16815260200190815260200160002060009054906101000a900460ff166111b4576040517f08c379a00000000000000000000000000000000000000000000000000000000081526004016111ab90611c0d565b60405180910390fd5b600560009054906101000a900460ff161580156111de5750600560019054906101000a900460ff16155b61121d576040517f08c379a000000000000000000000000000000000000000000000000000000000815260040161121490611c9f565b60405180910390fd5b60008111801561122f57506007548111155b61126e576040517f08c379a000000000000000000000000000000000000000000000000000000000815260040161126590611ac7565b60405180910390fd5b6006600082815260200190815260200160002060060160009054906101000a900460ff166112d1576040517f08c379a00000000000000000000000000000000000000000000000000000000081526004016112c8906123c0565b60405180910390fd5b60006006600083815260200190815260200160002060060160006101000a81548160ff021916908315150217905550807f07952e62885452aff3395e73284ce75f709da0ae6e9e559673d48926a75352ad60405160405180910390a250565b600560019054906101000a900460ff1681565b6000600160008373ffffffffffffffffffffffffffffffffffffffff1673ffffffffffffffffffffffffffffffffffffffff16815260200190815260200160002060009054906101000a900460ff169050919050565b60035481565b600560009054906101000a900460ff1681565b6000600560009054906101000a900460ff1615806113dc5750600560019054906101000a900460ff165b156113ea576000905061141f565b60006004546003546113fc919061196f565b905080421061140f57600091505061141f565b428161141b91906123e0565b9150505b90565b6000604051905090565b600080fd5b600080fd5b6000819050919050565b61144981611436565b811461145457600080fd5b50565b60008135905061146681611440565b92915050565b6000602082840312156114825761148161142c565b5b600061149084828501611457565b91505092915050565b600073ffffffffffffffffffffffffffffffffffffffff82169050919050565b60006114c482611499565b9050919050565b6114d4816114b9565b81146114df57600080fd5b50565b6000813590506114f1816114cb565b92915050565b60006020828403121561150d5761150c61142c565b5b600061151b848285016114e2565b91505092915050565b60008115159050919050565b61153981611524565b82525050565b60006020820190506115546000830184611530565b92915050565b600081519050919050565b600082825260208201905092915050565b60005b83811015611594578082015181840152602081019050611579565b60008484015250505050565b6000601f19601f8301169050919050565b60006115bc8261155a565b6115c68185611565565b93506115d6818560208601611576565b6115df816115a0565b840191505092915050565b6000602082019050818103600083015261160481846115b1565b905092915050565b61161581611436565b82525050565b6000602082019050611630600083018461160c565b92915050565b600080fd5b600080fd5b7f4e487b7100000000000000000000000000000000000000000000000000000000600052604160045260246000fd5b611678826115a0565b810181811067ffffffffffffffff8211171561169757611696611640565b5b80604052505050565b60006116aa611422565b90506116b6828261166f565b919050565b600067ffffffffffffffff8211156116d6576116d5611640565b5b6116df826115a0565b9050602081019050919050565b82818337600083830152505050565b600061170e611709846116bb565b6116a0565b90508281526020810184848401111561172a5761172961163b565b5b6117358482856116ec565b509392505050565b600082601f83011261175257611751611636565b5b81356117628482602086016116fb565b91505092915050565b600080600080608085870312156117855761178461142c565b5b600085013567ffffffffffffffff8111156117a3576117a2611431565b5b6117af8782880161173d565b94505060206117c087828801611457565b935050604085013567ffffffffffffffff8111156117e1576117e0611431565b5b6117ed8782880161173d565b925050606085013567ffffffffffffffff81111561180e5761180d611431565b5b61181a8782880161173d565b91505092959194509250565b600060e08201905061183b600083018a61160c565b818103602083015261184d81896115b1565b905061185c604083018861160c565b818103606083015261186e81876115b1565b9050818103608083015261188281866115b1565b905061189160a083018561160c565b61189e60c0830184611530565b98975050505050505050565b6118b3816114b9565b82525050565b60006020820190506118ce60008301846118aa565b92915050565b7f4c6520656c657a696f6e69206e6f6e20736f6e6f206174746976650000000000600082015250565b600061190a601b83611565565b9150611915826118d4565b602082019050919050565b60006020820190508181036000830152611939816118fd565b9050919050565b7f4e487b7100000000000000000000000000000000000000000000000000000000600052601160045260246000fd5b600061197a82611436565b915061198583611436565b925082820190508082111561199d5761199c611940565b5b92915050565b7f4c6520656c657a696f6e6920736f6e6f207465726d696e617465000000000000600082015250565b60006119d9601a83611565565b91506119e4826119a3565b602082019050919050565b60006020820190508181036000830152611a08816119cc565b9050919050565b7f486169206769612720766f7461746f0000000000000000000000000000000000600082015250565b6000611a45600f83611565565b9150611a5082611a0f565b602082019050919050565b60006020820190508181036000830152611a7481611a38565b9050919050565b7f43616e64696461746f206e6f6e2076616c69646f000000000000000000000000600082015250565b6000611ab1601483611565565b9150611abc82611a7b565b602082019050919050565b60006020820190508181036000830152611ae081611aa4565b9050919050565b7f51756573746f2063616e64696461746f206e6f6e2065272061747469766f0000600082015250565b6000611b1d601e83611565565b9150611b2882611ae7565b602082019050919050565b60006020820190508181036000830152611b4c81611b10565b9050919050565b6000611b5e82611436565b91507fffffffffffffffffffffffffffffffffffffffffffffffffffffffffffffffff8203611b9057611b8f611940565b5b600182019050919050565b7f536f6c6f20676c692061646d696e20706f73736f6e6f2065736567756972652060008201527f71756573746120617a696f6e6500000000000000000000000000000000000000602082015250565b6000611bf7602d83611565565b9150611c0282611b9b565b604082019050919050565b60006020820190508181036000830152611c2681611bea565b9050919050565b7f4c6520656c657a696f6e6920736f6e6f206769612720696e697a69617465206f60008201527f207465726d696e61746500000000000000000000000000000000000000000000602082015250565b6000611c89602a83611565565b9150611c9482611c2d565b604082019050919050565b60006020820190508181036000830152611cb881611c7c565b9050919050565b7f4465766920696e73657269726520696c206e6f6d65206520696c20636f676e6f60008201527f6d652064656c20636f6e64696461746f2e000000000000000000000000000000602082015250565b6000611d1b603183611565565b9150611d2682611cbf565b604082019050919050565b60006020820190508181036000830152611d4a81611d0e565b9050919050565b7f496c2063616e64696461746f206465766520617665726520616c6d656e6f203160008201527f3820616e6e692e00000000000000000000000000000000000000000000000000602082015250565b6000611dad602783611565565b9150611db882611d51565b604082019050919050565b60006020820190508181036000830152611ddc81611da0565b9050919050565b7f4e487b7100000000000000000000000000000000000000000000000000000000600052602260045260246000fd5b60006002820490506001821680611e2a57607f821691505b602082108103611e3d57611e3c611de3565b5b50919050565b60008190508160005260206000209050919050565b60006020601f8301049050919050565b600082821b905092915050565b600060088302611ea57fffffffffffffffffffffffffffffffffffffffffffffffffffffffffffffffff82611e68565b611eaf8683611e68565b95508019841693508086168417925050509392505050565b6000819050919050565b6000611eec611ee7611ee284611436565b611ec7565b611436565b9050919050565b6000819050919050565b611f0683611ed1565b611f1a611f1282611ef3565b848454611e75565b825550505050565b600090565b611f2f611f22565b611f3a818484611efd565b505050565b5b81811015611f5e57611f53600082611f27565b600181019050611f40565b5050565b601f821115611fa357611f7481611e43565b611f7d84611e58565b81016020851015611f8c578190505b611fa0611f9885611e58565b830182611f3f565b50505b505050565b600082821c905092915050565b6000611fc660001984600802611fa8565b1980831691505092915050565b6000611fdf8383611fb5565b9150826002028217905092915050565b611ff88261155a565b67ffffffffffffffff81111561201157612010611640565b5b61201b8254611e12565b612026828285611f62565b600060209050601f8311600181146120595760008415612047578287015190505b6120518582611fd3565b8655506120b9565b601f19841661206786611e43565b60005b8281101561208f5784890151825560018201915060208501945060208101905061206a565b868310156120ac57848901516120a8601f891682611fb5565b8355505b6001600288020188555050505b505050505050565b7f4c6520656c657a696f6e69206e6f6e20736f6e6f20616e636f7261207465726d60008201527f696e617465000000000000000000000000000000000000000000000000000000602082015250565b600061211d602583611565565b9150612128826120c1565b604082019050919050565b6000602082019050818103600083015261214c81612110565b9050919050565b7f4c6120647572617461206465766520657373657265206d616767696f7265206460008201527f69207a65726f0000000000000000000000000000000000000000000000000000602082015250565b60006121af602683611565565b91506121ba82612153565b604082019050919050565b600060208201905081810360008301526121de816121a2565b9050919050565b60006121f082611436565b91506121fb83611436565b925082820261220981611436565b915082820484148315176122205761221f611940565b5b5092915050565b600060408201905061223c600083018561160c565b612249602083018461160c565b9392505050565b7f536f6c6f20696c2070726f70726965746172696f206527206175746f72697a7a60008201527f61746f20612065736567756972652071756573746120617a696f6e6500000000602082015250565b60006122ac603c83611565565b91506122b782612250565b604082019050919050565b600060208201905081810360008301526122db8161229f565b9050919050565b7f4c27696e646972697a7a6f206e6f6e2070756f2720657373657265207a65726f600082015250565b6000612318602083611565565b9150612323826122e2565b602082019050919050565b600060208201905081810360008301526123478161230b565b9050919050565b7f43616e64696461746f20707265636564656e74656d656e74652064697361747460008201527f697661746f000000000000000000000000000000000000000000000000000000602082015250565b60006123aa602583611565565b91506123b58261234e565b604082019050919050565b600060208201905081810360008301526123d98161239d565b9050919050565b60006123eb82611436565b91506123f683611436565b925082820390508181111561240e5761240d611940565b5b9291505056fea26469706673582212201833f760637952cda6390366ad4fbf382625b020dbd0c72637afec75548ff14d64736f6c634300081b0033",
  "linkReferences": {},
  "deployedLinkReferences": {}
}